:100003008B108A1189128C138D14C3E513648094A9
:1000130080500FC3E49514F514E49513F513742D70
:100023008008AB10AA11A9127420120102AE13AFFB
:10003300147C277D10120114EF2430FFAB1005123E
:10004300E51270020511F9AA11EF120102AE13AF06
:10005300147C277D101201148C138D14AE13AF146E
:100063007C037DE8120114EF2430FFAB100512E589
:100073001270020511F9AA11EF120102AE13AF14A7
:100083007C037DE81201148C138D14AE13AF147C22
:10009300007D64120114EF2430FFAB100512E5124A
:1000A30070020511F9AA11EF120102AE13AF147C0D
:1000B300007D641201148C138D14AE13AF147C00F5
:1000C3007D0A120114EF2430FFAB100512E5127004
:1000D300020511F9AA11EF120102AE13AF147C004D
:1000E3007D0A1201148C138D14E5142430FFAB1018
:0F00F3000512E51270020511F9AA11EF020102C0
:10030200758921758DFD758BFD759850D2BCD28C87
:09031200D28ED2A9D2ACD2AF22E6
:0F0334001203437F201203437F581203437F3A83
:080343008F993099FDC2992247
:10027200E4FDFCC3ED9FEC9E5015E4FBFA0BBB00C2
:10028200010AEB64794A70F50DBD00010C80E4228D
:10031B0000000000000000000000000000000000D2
:09032B00000000000000000022A7
:0F036200D294D29512031BC29412031BC2952290
:0C038C00C294D29512031BD29402031BF2
:0E037100A2009294D29512031BC29502031BA8
:0D037F00D29512031BA294C29512031B22FB
:1002CD00E4FEEF339294D29512031BC29512031BD9
:0B02DD00EF25E0FF0EBE08EA02037FE1
:10029200E4FFD294FEEF25E0FFD29512031BA29455
:0E02A200E4334207C29512031B0EBE08E82289
:10034B00AC071203627FD01202CDAF041202CDAF05
:07035B00051202CD02038C24
:10022D00AD071203627FD01202CDAF051202CD12BF
:10023D0003627FD11202CD120292D200120371120B
:03024D00038C22FD
:10025000E4FD7F6B12034B7D077F1912034B1D7F5B
:100260001A12034B7D187F1B12034B7D017F1C026A
:02027000034B3E
:1002E800AC0712022DAB07EC04FF12022DAD07EB91
:0A02F800FE7C00E42DFFEC3EFE2228
:1002B000AD07AC067B007A00790A120003E4FE74F5
:0D02C0000A2EF8E6FF1203430EBE06F322DD
:10019F007FF47E011202721203021202507F967ECA
:1001AF00001202727F411203340F1202E81202B0E2
:1001BF007F201203437F5912033E7F3D1202E81244
:1001CF0002B07F201203437F5A12033E7F3F120279
:1001DF00E81202B07F201203437F471203347F439C
:1001EF001202E81202B07F201203437F5912033E1E
:1001FF007F451202E81202B07F201203437F5A128A
:10020F00033E7F471202E81202B07F0D1203437FB5
:0E021F000A1203437FD07E071202720201B35F
:0300000002039860
:0C039800787FE4F6D8FD75812002019FFB
:10010200BB010689828A83F0225002F722BBFE01DC
:02011200F322D6
:10011400C2D5EC30E709B2D5E4C39DFDE49CFCEE06
:1001240030E715B2D5E4C39FFFE49EFE12014AC333
:10013400E49DFDE49CFC800312014A30D507C3E42E
:060144009FFFE49EFE2275
:10014A00BC000BBE0029EF8DF084FFADF022E4CC99
:10015A00F875F008EF2FFFEE33FEEC33FCEE9DEC62
:10016A00984005FCEE9DFE0FD5F0E9E4CEFD22EDA8
:10017A00F8F5F0EE8420D21CFEADF075F008EF2FF2
:10018A00FFED33FD4007985006D5F0F222C398FDE3
:05019A000FD5F0EA2280
:00000001FF
